:100000000C94CC000C94E9000C94E9000C94E900E9
:100010000C94E9000C94E9000C94E9000C94E900BC
:100020000C94E9000C94E9000C94E9000C94E900AC
:100030000C94E9000C9425130C94E9000C94E9004D
:100040000C94E9000C94E9000C94E9000C94E9008C
:100050000C94E9004D4D432F534420696E69746937
:10006000616C697A6174696F6E206661696C656440
:100070000A006F70656E696E6720706172746974D2
:10008000696F6E206661696C65640A006F70656EE9
:10009000696E672066696C6573797374656D206637
:1000A00061696C65640A006F70656E696E672072C5
:1000B0006F6F74206469726563746F727920666112
:1000C000696C65640A00696E697400636420006489
:1000D00069726563746F7279206E6F7420666F75D4
:1000E0006E643A20006C7300636174200065727264
:1000F0006F72206F70656E696E6720006469736B44
:10010000006572726F722072656164696E67206447
:1001100069736B20696E666F0A00756E6B6E6F7720
:100120006E20636F6D6D616E643A20006D616E7557
:10013000663A20203078006F656D3A20202020003C
:1001400070726F643A202020007265763A20202079
:10015000200073657269616C3A20307800646174C4
:10016000653A2020200073697A653A202020004DEE
:10017000420A00636F70793A2020200077722E7057
:10018000722E3A2000666F726D61743A20006672BA
:1001900065653A202020000011241FBECFE5D8E07D
:1001A000DEBFCDBF10E0A0E6B0E0E6E7FCE202C0B3
:1001B00005900D92A037B107D9F711E0A0E7B0E0A4
:1001C00001C01D92A536B107E1F70E9426130C94D9
:1001D00039160C940000FC01318120E08081282B2D
:1001E000C90108950F931F93FC018381028110E0E0
:1001F00020E030E0980111270027382B8081082B60
:100200008181182BB801C9011F910F910895FC013C
:10021000718360830895FC017383628351834083FB
:100220000895AF92BF92CF92DF92EF92FF920F9319
:100230001F93CF93DF9300D000D000D0CDB7DEB7AF
:10024000FC01009709F499C0423051056105710520
:1002500008F493C0A081B18118968C9118978A01F7
:100260009B01922F8B3009F045C0832F9A01492FB3
:10027000582F60E070E080E090E002E00E94A3155B
:10028000A284B384C484D584E684F7840089118968
:100290000E94C115ED91FC91B4E0EB2EF12C8E0182
:1002A0000F5F1F4F0995882309F467C009811A81E0
:1002B0002B813C81011511052105310509F45DC033
:1002C000073F8FEF180728078FE0380709F455C05C
:1002D000D901C801805F9F4FAF4FBF400797A1056D
:1002E000B10508F44AC0D901C801885F9F4FAF4FDC
:1002F000BF403FC0832F9A01492F582F60E070E024
:1003000080E090E001E00E94A315A284B384C4843D
:10031000D584E684F784008911890E94C115ED9186
:10032000FC91A2E0EA2EF12C8E010B5F1F4F099584
:10033000882319F10D811E8120E030E0011511059F
:1003400021053105D1F0073F8FEF18072105310551
:10035000A1F0D901C801805F9F4FA109B10907979A
:10036000A105B10550F0D901C801885F9F4FA109CF
:10037000B1090897A105B10518F400E010E0980153
:10038000B801C90126960FB6F894DEBF0FBECDBFE7
:10039000DF91CF911F910F91FF90EF90DF90CF9061
:1003A000BF90AF900895CF92DF92EF92FF920F939C
:1003B0001F93CF93DF938C01F701C480D580C0E0F9
:1003C000D0E014C00E94F200672B682B692B69F4FF
:1003D000F70140815181628173814F5F5F4F6F4FA1
:1003E0007F4F40835183628373832496C8018C0FAF
:1003F0009D1FCC15DD0530F381E0DF91CF911F917A
:100400000F91FF90EF90DF90CF900895CF92DF9201
:10041000EF92FF920F931F93CF93DF938C01F7011D
:10042000C480D580C0E0D0E012C00E94EB00892BD0
:1004300069F4F70140815181628173814F5F5F4FA1
:100440006F4F7F4F40835183628373832296C8012D
:100450008C0F9D1FCC15DD0540F381E0DF91CF911E
:100460001F910F91FF90EF90DF90CF9008954F92E2
:100470005F926F927F92AF92BF92CF92DF92EF9294
:10048000FF920F931F93CF93DF93CDB7DEB72D97D6
:100490000FB6F894DEBF0FBECDBF6C01D701AD9093
:1004A000BC90119712968D919C91139780961396FC
:1004B0009C938E931297F6018081853E11F08111F5
:1004C00004C0D70114961C9258C0F60193859F3042
:1004D00009F059C0D70114968C91882319F095859D
:1004E000891711F181E3F50111928A95E9F7D60197
:1004F0001D968C91F7018483D50199960C93999759
:100500009A961C939A979B962C939B979C963C93B8
:100510009C979D964C939D979E965C939E979F96D5
:100520006C939F97D0967C93F60120812F7330E0D7
:10053000215031094DE0429FC001439F900D11248D
:10054000E0E6F0E0DE01119601900D924A95E1F7A8
:10055000FE0131969E01225F3F4F11C041918501FE
:10056000080F191FB601640F711DDB014C91D801F2
:100570004C930196E217F30711F481E0A5C08F3187
:10058000910560F3FACFF5019081992381F0F7018D
:10059000A481F601319691E080FB879587F9B191AE
:1005A0008B0F9F5F9B30C1F7A81709F459C081E3F7
:1005B000D5011D928A95E9F7F50101A712A723A796
:1005C00034A745A756A767A770ABD601A50180E061
:1005D0009C919032A1F0FA019083F601248523FFCB
:1005E00008C02C91213428F02B3518F4905EFA01C4
:1005F00090838F5F11964F5F5F4F883049F7D50129
:100600009C91953011F495EE9C93F6019085903273
:1006100019F1F501E80FF11D9EE29083F60138967D
:10062000382F3C5F8F5F90819032B1F0A501480F69
:10063000511DDA019C93D6011C962C9124FF08C011
:100640002081213428F02B3518F4905EDA019C9338
:100650008F5F31968313E7CFF501E80FF11D10820C
:10066000F6018385D50190968C93C6014A960E9427
:10067000EB002C01612C712CF50141A252A263A266
:1006800074A2C60144960E94EB00AC0160E070E0E9
:10069000BA01552744274429552966297729D501C8
:1006A00091964D935D936D937C939497C6014C9670
:1006B0000E94F200F50165A376A387A390A781E0CD
:1006C000D70115968C9380E02D960FB6F894DEBF77
:1006D0000FBECDBFDF91CF911F910F91FF90EF9093
:1006E000DF90CF90BF90AF907F906F905F904F90D2
:1006F00008952F923F924F925F926F927F928F92C6
:100700009F92AF92BF92CF92DF92EF92FF920F93A0
:100710001F93CF93DF93CDB7DEB7CD54D1090FB67A
:10072000F894DEBF0FBECDBF9FA78EA7892B09F01F
:100730005BC260C210927100109270005BC2CE0169
:1007400001960E94EB009DAF8CAFCE0104960E94F3
:10075000EB0099AF88AFAB802696AFAE2697BE80F0
:100760002396BFAE2397CE0107960E94EB002896F2
:100770009FAF8EAF2897CE0109960E94EB008C01A7
:10078000CE010C960E94EB0025969FAF8EAF259769
:10079000CE0146960E94F2006B017C01CE014A9682
:1007A0000E94F20022966CAF7DAF8EAF9FAF229772
:1007B000CE0182960E94F2002E966CAF7DAF8EAF76
:1007C0009FAF2E97C114D104E104F10439F401154F
:1007D000110509F4AFCF6801E12CF12C25960EAD7F
:1007E0001FAD25970115110551F0980140E050E02B
:1007F00022962CAF3DAF4EAF5FAF22970BC0229633
:100800006CAD7DAD8EAD9FAD2297672B682B692BAC
:1008100009F490CF2601370188AD99AD481A590ADD
:100820006108710823969FAD2397A92FB0E0229607
:100830002CAD3DAD4EAD5FAD22970E94FB14461A24
:10084000570A680A790A8CAD9DAD019728962EAD9E
:100850003FAD289745E0220F331F4A95E1F7820FFD
:10086000931F6CAD7DAD0E941615461A570A61089C
:1008700071082696AFAD26972A2F30E040E050E071
:10088000C301B2010E942A1529013A01253FBFE0A8
:100890003B074105510508F44DCF253FEFEF3E07DB
:1008A0004105510530F486E0AEA5BFA518968C939E
:1008B00004C08BE0EEA5FFA580878CE2E2E7F0E0C4
:1008C000DF011D928A95E9F72CAD3DAD890120E04D
:1008D00030E040E050E0BA010EA31FA328A739A7DB
:1008E0004AA75BA76CA77DA7B701A60180E090E0AF
:1008F000DC01C8AA59AB6AAB7BAB8CAB9DABAEAB92
:10090000BFAB5801C12CD12CE12CF12C00E010E040
:100910009A01AB0160E070E080E090E00E944C152D
:1009200020937200309373004093740050937500CD
:1009300060937600709377008093780090937900AD
:10094000E8ADF9AD9F0140E050E060E070E080E08C
:1009500090E00E944C1554016101EAACFBAC299671
:100960000FAD29972A961FAD2A970E94C11528AB73
:1009700038AF4AAF5BAF1B014C0120937A00309334
:100980007B0040937C0050937D0060937E0030920A
:100990007F008093800090928100C301B2016E5F5E
:1009A0007F4F8F4F9F4FAEA5BFA518962C91263035
:1009B00029F422E030E040E050E004C024E030E0E0
:1009C00040E050E00E94061560938200709383001F
:1009D0008093840090938500ECADFDADF09387008B
:1009E000E09386002696AFAC2697AE9EC001AF9EE0
:1009F000900D11249093890080938800AEA5BFA527
:100A000018968C91863009F064C02596EEADFFAD46
:100A100025975F01C12CD12CE12CF12C00E010E0D6
:100A20002EA13FA140E050E060E070E080E090E067
:100A30000E944C152396AFAC2397B12C0E944C1505
:100A4000A8A8B8ACCAACDBAC710184010E94C11586
:100A500029013A01B62FA72FF82FE92F20939200F2
:100A6000509293004093940070929500609396008A
:100A700070939700809398009093990028960EADFC
:100A80001FAD2897980140E050E060E070E080E002
:100A900090E005E00E94A31559016A017B018C01D9
:100AA0009201A3016B2F7A2F8F2F9E2F0E94C115C9
:100AB00020938A0030938B0040938C0050938D00DC
:100AC00060938E0070938F008093900090939100BC
:100AD00053C02396AFAC2397B12CC12CD12CE12C61
:100AE000F12C00E010E02EA13FA140E050E060E0DA
:100AF00070E080E090E00E944C152296CCACDDAC1A
:100B0000EEACFFAC229756016701E12CF12C870176
:100B1000AEA2BFA2C8A6D9A6EAA6FBA60CA71DA78F
:100B2000E12CF12C00E010E00E944C15A8A8B8AC14
:100B3000CAACDBAC710184010E94C11520938A000C
:100B400030938B0040938C0050938D0060938E0007
:100B500070938F0080939000909391002E96ECAC50
:100B6000FDAC0EAD1FAD2E97E0929A00F0929B0067
:100B700000939C0010939D0020E730E03DC0E0E72B
:100B8000F0E082E3DF011D928A95E9F7EEA5FFA56B
:100B9000F0937100E093700081849284A384B48404
:100BA0009401A50160E070E080E090E009E00E941F
:100BB000A31549011A016AAF7BAF29968FAF299718
:100BC0002A969FAF2A97ABE00E94CA150190F08148
:100BD000E02D05E2E02EF12C8E010F5F1F4F0995ED
:100BE000882309F4A7CDABCD80917000909171005E
:100BF000892B29F220E030E0C901C35BDF4F0FB63B
:100C0000F894DEBF0FBECDBFDF91CF911F910F9142
:100C1000FF90EF90DF90CF90BF90AF909F908F901C
:100C20007F906F905F904F903F902F900895009726
:100C300019F0FC011182108208950097D1F161151D
:100C40007105B9F1FB0120A124FF2DC032C021E3C1
:100C5000FB01A4EAB0E001900D922A95E1F7909390
:100C6000A3008093A2001092D5001092D60010929B
:100C7000D7001092D8001092D9001092DA0010928A
:100C8000DB001092DC00FB0181A192A1A3A1B4A121
:100C90008093DD009093DE00A093DF00B093E0002E
:100CA00022EA30E008C02091A2003091A300232B5B
:100CB00071F220E030E0C9010895009719F0FC01BD
:100CC0001182108208952F923F924F925F926F92FD
:100CD0007F928F929F92AF92BF92CF92DF92EF92CC
:100CE000FF920F931F93CF93DF93CDB7DEB7A097FB
:100CF0000FB6F894DEBF0FBECDBF4C017E8F6D8F57
:100D00005A8F498F009709F48BC0AD8CBE8CAB28ED
:100D100009F486C0C98CDA8CC114D10409F480C0EE
:100D2000DC01D396BC91B983FC01F4A9FA83DC0100
:100D3000D596BC91BB83FC01F6A9FC83DC01D79658
:100D4000BC91BD83FC01F0ADFE83DC01D996BC9162
:100D5000BF83FC01F2ADF887DC0197964D905D9062
:100D60006D907C909A97960140E050E060E070E0D2
:100D700080E090E0A980BA80CB80DC80ED80FE80AE
:100D80000F811F2F0E94C11563015201E12CF12C2C
:100D900087014986BA86CB86DC86ED86FE860F877C
:100DA000188BE12CF12C00E010E00E94DF1569F0B7
:100DB00060F06201E980FA80CE18DF08DA8EC98E11
:100DC000CD2819F420E030E079C1D401ED91FC91F7
:100DD0001197A08CB18CBC8EAB8EDB964D905D9044
:100DE0006D907C90DE97411451046104710409F008
:100DF00059C093964D905D906D907C909697298107
:100E00003A814B815C816D817E818F819885A0E0E4
:100E1000411451046104710431F40E94E81591F207
:100E20002FEF3FEF4BC10E94E815E1F1C980DA8056
:100E3000EB80FC80C98ADA8AEB8AFC8A0B8D1C8DD8
:100E4000780100E010E0E986FA860B871C87C12C48
:100E5000D12C760116C0B301A201D4018D919C91D1
:100E60000E9411012B013C0129853A854B855C8547
:100E7000C21AD30AE40AF50A6115710581059105C4
:100E800079F289899A89AB89BC898C0D9D1DAE1D2B
:100E9000BF1D29853A854B855C8582179307A4077A
:100EA000B507C8F64B8D5C8D4150510969817A8137
:100EB000462357235A874987898D9A8D9A83898338
:100EC000D4010D90BC91A02DB8A3AF8FAB2BE1F155
:100ED000B2E04B16510461047104B0F1D301C201B8
:100EE0000297A109B1095C016D01E12CF12C870188
:100EF000898BBA8ACB8ADC8AED8AFE8A0F8B188F9F
:100F0000AF8DB8A158960D911C9159975801C12CDD
:100F1000D12CE12CF12C00E010E029893A894B8991
:100F20005C8960E070E080E090E00E944C15EF8DFD
:100F3000F8A1A28CB38CC48CD58CE68CF78C00A164
:100F400011A10E94C11508C020E030E040E050E04F
:100F500060E070E080E090E02B8C3C8CA984BA8447
:100F60002A183B08C980DA80C214D30408F4160199
:100F7000AF8DB8A1ED91FC91C984DA845601C12CE2
:100F8000D12CE12CF12C8701A98ABA8ACB8ADC8A80
:100F9000ED8AFE8A0F8B188FC12CD12CE12CF12CFD
:100FA00000E010E00E94C1150190F081E02D710178
:100FB0000D8D1E8D0995811107C0298D3A8DE9800F
:100FC000FA802E193F097AC00D8D1E8D020D131D5A
:100FD0001E8F0D8F29813A81221933093A83298383
:100FE000910140E050E060E070E080E090E0D401EA
:100FF000D396AC90D397D496BC90D497D596CC90FA
:10100000D597D696DC90D697D796EC90D797D8966A
:10101000FC90D897D9960C91D997DA961C91DA97CB
:101020000E94C115D3962C93D397D4963C93D49712
:10103000D5964C93D597D6965C93D697D7966C93C6
:10104000D797D8967C93D897D9968C93D997DA96D8
:101050009C93DA97E985FA852E0E3F1EAB8CBC8CEB
:101060002A143B04E8F0B301A2018D919C910E94E7
:1010700011012B013C01611571058105910571F488
:10108000D401DB961D921D921D921C92DE97298D34
:101090003A8DE981FA812E1B3F0B10C01A86198602
:1010A000D401DB964D925D926D927C92DE97E98140
:1010B000FA81EF2B09F004CF298D3A8DC901A09652
:1010C0000FB6F894DEBF0FBECDBFDF91CF911F9159
:1010D0000F91FF90EF90DF90CF90BF90AF909F90D7
:1010E0008F907F906F905F904F903F902F900895DA
:1010F000CF92DF92EF92FF920F931F93FC01DB01DF
:10110000009709F448C0109709F445C033A924A9F1
:1011100095A986A9413051F018F04230E1F510C090
:10112000CD90DD90ED90FC90139717C0432F522F78
:10113000692F782FCD90DD90ED90FC90139709C02A
:10114000CD90DD90ED90FC90139747A150A561A53F
:1011500072A5C40ED51EE61EF71E47A150A561A5B7
:1011600072A54C155D056E057F05A8F097018601F7
:10117000C3AA14AB25AB36AB17AA10AE11AE12AE94
:1011800013AE14AE15AE16AECD92DD92ED92FC927A
:10119000139781E001C080E01F910F91FF90EF90C5
:1011A000DF90CF900895CF93DF93009799F061156A
:1011B000710581F0FB0120A124FF0CC02091E1000A
:1011C0003091E200232B49F020911A0130911B014C
:1011D000232B31F0C0E0D0E01AC0C1EED0E002C055
:1011E000CAE1D1E0DE01129621E3FB0101900D92EC
:1011F0002A95E1F799838883FB0141A152A163A15C
:1012000074A14BAB5CAB6DAB7EAB18AE1FAACE012D
:10121000DF91CF910895009719F0FC01118210829F
:101220000895FC01009761F043A154A165A176A146
:1012300043AB54AB65AB76AB10AE17AA81E0089513
:1012400080E008952F923F924F925F926F927F922B
:101250008F929F92AF92BF92CF92DF92EF92FF92C6
:101260000F931F93CF93DF93CDB7DEB7EE970FB6F3
:10127000F894DEBF0FBECDBF98AB8FA7892B09F4C2
:101280001FC061157105E1F0AFA5B8A92D903C9084
:101290001197F101008CF18DE02DFCABEBABD396F7
:1012A0004D905D906D907C90D697D7968D919C9146
:1012B000D8978E179F0730F08FA598A90E94110923
:1012C00080E017C1FE01B19626E0DF011D922A954C
:1012D000E9F721E3FB0111922A95E9F77AA369A3C3
:1012E000411451046104710409F0DCC0D101ED9195
:1012F000FC91119720852B3039F49A964D905D9092
:101300006D907C909D97CEC0F101028CF38DE02D05
:10131000D10192962D913C919397E21BF30BFCAB7C
:10132000EBABC0C0EBA9FCA909A91AA9E01BF10B02
:10133000FEAFEDAF980140E050E060E070E0CB011F
:101340000FA338A749A75AA76BA77CA78DA79EA76D
:101350004114510461047104F9F440E050E060E08C
:1013600070E080E090E0D1019296AC9092979396D5
:10137000BC9093979496CC9094979596DC90959783
:101380009696EC9096979796FC90979798960C91D6
:10139000989799961C9148C021143104A9F1B2E0A4
:1013A0004B1651046104710478F1F101008D118D27
:1013B0005801C12CD12CE12CF12C00E010E02DA91A
:1013C0003EA94FA958AD60E070E080E090E00E9437
:1013D0004C15D1015A96AC905A975B96BC905B978E
:1013E0005C96CC905C975D96DC905D975E96EC90F9
:1013F0005E975F96FC905F9790960C919097919670
:101400001C910E94C11508C020E030E040E050E08F
:1014100060E070E080E090E0AFA0B8A4C9A4DAA4D6
:10142000EBA4FCA40DA51EA50E94C1151CA21BA225
:10143000D101ED91FC910280F381E02DA1E28A2E91
:10144000912C8C0E9D1EB7E3AB2EB2E0BB2ECDAC23
:10145000DEAC10E2E12EF12C8E010F5F1F4F0995DB
:10146000882309F42DCF8BA19CA1E9A9FAA9E80F43
:10147000F91FFAABE9AB0BA91CA9E017F10730F192
:10148000B301A201C1010E9411012B013C0180E0C6
:1014900090E0411451046104710421F48EA1811182
:1014A00019C00ACF9AAB89ABD301C2010297A10937
:1014B000B1098C019D0140E050E0BA018DAB1EAB3B
:1014C0002FAB38AF49AF5AAF6BAF7CAF8EA188233B
:1014D00009F428CFAFA5B8A9D3964D925D926D922D
:1014E0007C92D697E9A9FAA9D896FC93EE93D79760
:1014F0008EA1EE960FB6F894DEBF0FBECDBFDF9182
:10150000CF911F910F91FF90EF90DF90CF90BF9000
:10151000AF909F908F907F906F905F904F903F9093
:101520002F9008958F929F92AF92BF92CF92DF92A9
:10153000EF92FF920F931F93CF93DF935C01EB0128
:101540008A01009709F46CC0209709F469C088816A
:10155000882309F465C04115510509F461C08F3233
:1015600009F4219681E3F80111928A95E9F780E167
:10157000F80180A38881811102C081E052C0B801C6
:10158000C5010E94D3087C01009709F449C06FE2AD
:1015900070E0CE010E941716009739F0C82ECC1AC1
:1015A0004C012FEF821A920A2CC0AC2FBD2FFD01E7
:1015B00001900020E9F73197EA1BFB0BCE2E4E017C
:1015C0008E0E911C1EC0F80101900020E9F73197A2
:1015D000E01BF10BEC15FD05A9F4A601B801CE0145
:1015E0000E942B16009771F4C7010E940B09CC0DC5
:1015F000DD1D8881882309F2F80180A184FD09C0DE
:101600000FC0D12CB801C7010E9422098111DBCF84
:1016100003C0E401E12CF12CC7010E940B09AACF01
:1016200080E0DF91CF911F910F91FF90EF90DF90BD
:10163000CF90BF90AF909F908F900895AF92BF9240
:10164000CF92DF92EF92FF920F931F93CF93DF938E
:10165000FC01009759F1A081B18118962C918289E3
:101660009389A489B589008D118D2B3041F432E026
:10167000B695A795979587953A95D1F704C0B695F5
:10168000A795979587950297A109B1095801C12C93
:10169000D12CE12CF12C00E010E09C01AD0160E0C8
:1016A00070E080E090E00E944C1508C020E030E03F
:1016B00040E050E060E070E080E090E0DF91CF91AA
:1016C0001F910F91FF90EF90DF90CF90BF90AF9060
:1016D00008952F923F924F925F926F927F928F92D6
:1016E0009F92AF92BF92CF92DF92EF92FF920F93B1
:1016F0001F93CF93DF93CDB7DEB7E8970FB6F8947B
:10170000DEBF0FBECDBF3C01009749F420E030E0C2
:1017100040E050E060E070E080E090E0AAC019A2F4
:101720001AA21BA21CA280E290E09EA38DA3F3014B
:10173000F285F9A7F301F385FAA7F301F485FBA776
:10174000F301F585FCA7F301F685FDA7F301F78505
:10175000FEA7F301F089FFA7F301F189F8ABF301CC
:10176000228833884488558868C0FEEF2F16FFEF23
:101770003F064104510418F438A62FA204C02EEFEE
:101780003FEF38A72FA3F301A081B1811296ED910D
:10179000FC91139718968C91863019F486E092E0AC
:1017A00002C083ED91E041E2842E912C8C0E9D1EAF
:1017B0005C01CFA0D8A450E2E52EF12C8E010F5F82
:1017C0001F4F29A53AA54BA55CA56DA57EA58FA5A4
:1017D00098A90995882309F499CF4FA158A59A0192
:1017E00040E050E060E070E0CB0129AB3AAB4BAB9E
:1017F0005CAB6DAB7EAB8FAB98AF29A53AA54BA583
:101800005CA56DA57EA58FA598A9A9A8BAA8C12C8D
:10181000D12CE12CF12C00E010E00E94C11529A789
:101820003AA74BA75CA76DA77EA78FA798AB6FA120
:1018300078A5261A370A41085108211431044104B9
:10184000510409F092CFF301208C318C09A11AA127
:101850002BA13CA158016901E12CF12C00E010E022
:10186000910140E050E060E070E080E090E00E9494
:101870004C15E8960FB6F894DEBF0FBECDBFDF91D2
:10188000CF911F910F91FF90EF90DF90CF90BF907D
:10189000AF909F908F907F906F905F904F903F9010
:1018A0002F900895EF92FF920F93CF93DF93CDB7D0
:1018B000DEB76D970FB6F894DEBF0FBECDBF7C01CB
:1018C000009711F480E0A7C0CE0101960E94BC10E1
:1018D0008823C1F38CE291E00E94051389810E9464
:1018E0001C128AE00E94101287E391E00E94051307
:1018F000CE0102960E94F9128AE00E94101280E442
:1019000091E00E940513CE0105960E94F9128AE02B
:101910000E94101289E491E00E9405138B850E94B9
:101920001C128AE00E94101282E591E00E940513C9
:101930006C857D858E859F850E943D128AE00E9480
:1019400010128DE591E00E940513898990E00E94B4
:101950004D128FE20E941012888990E00E944D1271
:101960008AE00E94101286E691E00E9405132A89FF
:101970003B894C895D896E897F89888D998D04E1C9
:101980000E94B215B901CA010E9493128FE691E03C
:101990000E94051383E791E00E9405138A8D90E071
:1019A0000E944D128AE00E9410128CE791E00E9482
:1019B00005138C8D90E00E944D128FE20E94101250
:1019C0008B8D90E00E944D128AE00E94101285E8F3
:1019D00091E00E9405138D8D90E00E944D128AE0E7
:1019E0000E9410128EE891E00E940513C7010E9428
:1019F000690BB901CA010E9493128FE20E94101272
:101A0000C7010E941E0BB901CA010E9493128AE00D
:101A10000E94101281E06D960FB6F894DEBF0FBEE3
:101A2000CDBFDF91CF910F91FF90EF9008955F921E
:101A30006F927F928F929F92AF92BF92CF92DF92DE
:101A4000EF92FF920F931F93CF93DF93CDB7DEB743
:101A500060970FB6F894DEBF0FBECDBF6C015B017F
:101A60003A014901502E009719F420E030E066C099
:101A700061157105D1F383E08017BCF307FF05C042
:101A800080915B018111F1CF3FC0A0E10A02F0011A
:101A90001124E254FE4F9F2F990F990B80E1E82EFD
:101AA000F12C8E010F5F1F4F9F01492F592F692F76
:101AB000792F892FF60109958823B9F28D8181113B
:101AC000DFCFD3CF8D8180935B01CE0109960E9439
:101AD000F20060935C0170935D0180935E019093CE
:101AE0005F01CE010D960E94F20060936001709339
:101AF0006101809362019093630103C08FEF809333
:101B00005B0123E531E01AC081E1E3E5F1E0DF01AB
:101B10001D928A95E9F7D0925401C0925301B09278
:101B20005601A0925501709258016092570190920F
:101B30005A018092590157FEC5CFE0CFC901609686
:101B40000FB6F894DEBF0FBECDBFDF91CF911F91CE
:101B50000F91FF90EF90DF90CF90BF90AF909F904C
:101B60008F907F906F905F900895009721F0FC0117
:101B7000108681E0089580E008958FB9779BFECFAD
:101B8000779808958FEF8FB9779BFECF77988FB1B5
:101B900008951F93CF93DF9300D000D0CDB7DEB769
:101BA000182F4C835B836A8379830E94C20D812F37
:101BB00080640E94BD0D7981872F0E94BD0D6A81CE
:101BC000862F0E94BD0D5B81852F0E94BD0D4C812B
:101BD000842F0E94BD0D112319F0183041F405C067
:101BE00085E90E94BD0D1AE004C087E8FACF8FEFA7
:101BF000F8CF0E94C20D8F3F11F41150D1F70F9012
:101C00000F900F900F90DF91CF911F91089583B3A4
:101C10008295817091E089270895CF92DF92EF92AB
:101C2000FF92CF93DF93A498A598BD9ABF9ABC9AD0
:101C3000BE98C49A83E58DB97098109264010E9491
:101C4000070E811101C08DC0CAE00E94C20DC150B3
:101C5000E1F7C498C0E0D2E040E050E0BA0180E093
:101C60000E94C90D813019F02197B1F761C04AEA8D
:101C700051E060E070E088E00E94C90D82FD15C06F
:101C80000E94C20D0E94C20D0E94C20D80FF69C059
:101C90000E94C20D8A3A09F064C08091640182609A
:101CA00080936401C0E0D0E812C040E050E0BA0187
:101CB00087E30E94C90D40E050E0BA0189E20E942A
:101CC000C90D82FDEFCF809164018160E9CF8091E1
:101CD0006401982F9370A9F081FD04C0C12CD12C10
:101CE000760105C0C12CD12CE12C80E4F82E40E017
:101CF00050E0BA0187E30E94C90DB701A60189E24D
:101D000004C040E050E0BA0181E00E94C90D80FFAC
:101D100003C02197E1F60CC0C0916401C1FF17C058
:101D200040E050E0BA018AE30E94C90D882311F017
:101D3000C49A17C00E94C20D86FF03C0C460C0933E
:101D400064010E94C20D0E94C20D0E94C20D40E0BB
:101D500052E060E070E080E10E94C90DC49A8823DF
:101D600011F080E005C08DB18C7F8DB9709A81E053
:101D7000DF91CF91FF90EF90DF90CF90089583B3E4
:101D800085FB882780F991E0892708952F923F925B
:101D90004F925F926F927F928F929F92AF92BF927B
:101DA000CF92DF92EF92FF920F931F93CF93DF9327
:101DB000CDB7DEB72C970FB6F894DEBF0FBECDBF00
:101DC000922E832E742E652E562E472E382E292EB7
:101DD0001A870987FC86EB868AC0BB24B394B82097
:101DE0009982BA82292D382D472D562D652D742DB7
:101DF000832D922DA92CC12CD12CE12CF12C00E0AB
:101E000010E00E94D615E12CE2E0FE2EE981FA8175
:101E1000EE1AFF0AEB85FC85EE15FF0508F47F013D
:101E2000C498E0916401E2FF03C009E00E94B2158A
:101E3000BA01422F532F81E10E94C90D882319F066
:101E4000C49A80E05AC00E94C20D8E3FE1F7C9805B
:101E5000DA80CE0CDF1C00E010E00E94C20D298168
:101E60003A810217130740F00C151D0528F4E98587
:101E7000FA858193FA87E9870F5F1F4F0115F2E01A
:101E80001F0759F70E94C20D0E94C20DC49A0E94FA
:101E9000C20D2B853C852E193F093C872B87970166
:101EA00040E050E060E070E0CB01E9823A834B8390
:101EB0005C836D837E838F839887292D382D472DF2
:101EC000562D652D742D832D922DA980BA80C12C9D
:101ED000D12CE12CF12C00E010E00E94C115922ED3
:101EE000832E742E652E562E472E382E292E4B8586
:101EF0005C85452B09F071CF81E02C960FB6F894E4
:101F0000DEBF0FBECDBFDF91CF911F910F91FF902C
:101F1000EF90DF90CF90BF90AF909F908F907F9089
:101F20006F905F904F903F902F9008952F923F9227
:101F30004F925F926F927F928F929F92AF92BF92D9
:101F4000CF92DF92EF92FF920F931F93CF93DF9385
:101F5000CDB7DEB768970FB6F894DEBF0FBECDBF22
:101F600029833A834B835C836D837E838F83988739
:101F70001A8B098B27011601BC8AAB8A9E8A8D8A2F
:101F8000012B09F4DFC0E114F10409F4DBC0CE1425
:101F9000DF0408F4D7C0AB2809F4D4C0C4988989F9
:101FA0009A898E0D9F1D988F8F8B99819987AA8111
:101FB000A170AA871B861C861D861E861F86188A0E
:101FC00089849A84612CF2E07F2E681879088091C8
:101FD000640182FF14C0292F3A814B815C816D819D
:101FE0007E818F81988509E00E94B215F22FE32F40
:101FF000942F852F4F2F5E2F692F782F0CC049818A
:102000005A816B817C8189859A85AB85BC85481B0B
:10201000590B6A0B7B0B81E10E94C90D882311F0DB
:10202000C49A90C00E94C20D8E3FE1F700E010E01C
:1020300004C00E94C20D0F5F1F4F08151905C8F399
:1020400064147504F0F124143504D8F109891A894F
:1020500008C0992493943CC00E94C20DD8018D936E
:102060008D01EF89F88D0E171F07B1F7940140E03D
:1020700050E060E070E080E090E0A980BA80CB8022
:10208000DC80ED80FE800F8118850E94C115ED88EF
:10209000FE8889019A01AB01BC0189899A89EB8983
:1020A000FC8909958823A9F2641875082418350855
:1020B0006114710431F0840C951C2114310409F071
:1020C000BFCF912C05C00E94C20DF1E06F1A7108BC
:1020D00061147104C1F70E94C20D0E94C20D241444
:1020E000350458F120E032E040E050E060E070E07C
:1020F00080E090E0A984BA84CB84DC84ED84FE8403
:102100000F8518890E94D61559016A017B018C013F
:1021100029813A814B815C816D817E818F81988597
:102120000E94C11529833A834B835C836D837E8330
:102130008F839887992009F438CFC49A0E94C20DE2
:1021400081E001C080E068960FB6F894DEBF0FBE54
:10215000CDBFDF91CF911F910F91FF90EF90DF9056
:10216000CF90BF90AF909F908F907F906F905F9037
:102170004F903F902F9008956F927F929F92AF92D1
:10218000BF92CF92DF92EF92FF920F931F93CF9364
:10219000DF931F92CDB7DEB73C01009709F413C05F
:1021A0000E94070E882379F08DE1F30111928A9540
:1021B000E9F7C49840E050E0BA018AE00E94C90DF6
:1021C000882319F0C49A80E014C10E94C20D8E3F8A
:1021D000E1F7D62C830140E6E42EF12C902F9D19D7
:1021E00099830E94C20D9981983028F4933090F41D
:1021F000992359F00CC09D3018F4993088F40DC023
:102200009D3039F19E3099F529C0F30101C0F801E4
:1022100080832DC0F80181832AC0F301828727C003
:1022200090E0A0E0B0E00E2C04C0880F991FAA1F18
:10223000BB1F0A94D2F7F3014385548565857685E3
:10224000482B592B6A2B7B2B4387548765877687CE
:102250000EC08295807FF301878709C0282F2295C1
:102260002F70F3019785922B97878F70808B0F5F6C
:102270001F4FF8E0EF1AF10880EDE8168FEFF8062F
:1022800009F0ACCF40E050E0BA0189E00E94C90DEE
:10229000811198CF0E94C20D8E3FE1F7D12CB12C55
:1022A000E12CF12CC12C912CAA24A3940E94C20DE4
:1022B000D11007C0B82EB294B694B69433E0B322CE
:1022C00092C09EE0D91215C086FF02C0F301A18E14
:1022D00085FF02C0F301A28E84FF02C0F301A38E2A
:1022E0008C7090E09595879595958795F301848FEF
:1022F0007AC0F1E0BF1227C097E0D91631F0D916A5
:1023000040F0E9E0ED1528F001C08F73FE2CEE24BB
:10231000E82AF9E0DF1267C08FEFE81AF80A9701A0
:1023200040E050E060E070E080E090E003E10E9477
:10233000A315F301218B328B438B548B658B768BEA
:10234000878B908F50C0B1104EC0F7E0DF16D9F0E8
:10235000FD1538F095E0D91669F0E6E0DE1243C0CD
:102360000DC0F9E0DF16F1F0DF1698F09AE0D9120F
:102370003AC01DC00FE0902E982235C013E0F12E18
:10238000F822E12C30C0E82AEE0CFF1CEE0CFF1CFA
:102390002AC08295869586958370E82AEFEFEE1A1B
:1023A000FE0A21C0A3E0CA2EC822CC0C1CC0881F84
:1023B0008827881FC82A870120E030E0892D90E017
:1023C0008C0D911D029604C0000F111F221F331F98
:1023D0008A95D2F7F301018B128B238B348B158AEC
:1023E000168A178A108ED394F2E1DF125FCFC49A57
:1023F00081E00F90DF91CF911F910F91FF90EF90AF
:10240000DF90CF90BF90AF909F907F906F90089596
:1024100010BC87E689B986E880BD88E98AB9089545
:10242000CF93C82F8A3019F48DE00E9410125D9B63
:10243000FECFCCB9CF910895CF93C82F82958F70DE
:102440008A3010F4805D01C0895A0E9410128C2FCE
:102450008F70282F30E02A30310514F4805D01C0E0
:10246000895ACF910C941012CF93C82F892F0E94B4
:102470001C128C2FCF910C941C12CF92DF92EF92F2
:10248000FF926B017C01C7010E943412C601FF90CC
:10249000EF90DF90CF900C943412AF92BF92CF9216
:1024A000DF92EF92FF920F931F93CF93DF931F92D0
:1024B000CDB7DEB77C0105E010E020E080E1A82E7A
:1024C00087E2B82E9AE0C92ED12CC701B5010E942F
:1024D0001615862F611106C0211104C091E0A916BE
:1024E000B10431F4805D69830E94101221E069819A
:1024F0006A9DC0016B9D900D1124E81AF90AC5016F
:10250000B6010E9416155B0101501109F1F60F90FA
:10251000DF91CF911F910F91FF90EF90DF90CF90BF
:10252000BF90AF9008952F923F924F925F926F921B
:102530007F928F929F92AF92BF92CF92DF92EF9253
:10254000FF921F93CF93DF931F92CDB7DEB74B015E
:102550005C012AE0222E312C10E0C12C3AECD32E63
:102560003AE9E32E3BE3F32E4AE0442E512C612C52
:10257000712CC501B401A70196010E942A15822F72
:10258000211108C0111106C091E0C916D104E1045F
:10259000F10431F4805D29830E94101211E0298139
:1025A000A22FB0E0A70196010E94FB14861A970A99
:1025B000A80AB90AC701B601A30192010E942A150F
:1025C00069017A01E1E02E1A310899F60F90DF9146
:1025D000CF911F91FF90EF90DF90CF90BF90AF9081
:1025E0009F908F907F906F905F904F903F902F9033
:1025F0000895CF93DF93EC0102C00E9410128991DD
:102600008111FBCFDF91CF910895CF93DF93EC0140
:10261000FE0121968491882319F00E941012F8CFB0
:10262000DF91CF9108959FB7789407C085B78068F0
:1026300085BF889585B78F7785BF5F9BF7CF9FBF95
:102640008CB18D3009F48AE008951895CF93DF930B
:10265000CDB7DEB7C358D1090FB6F894DEBF0FBEB1
:10266000CDBF85B78F7885BF0E9408127E0183E6B3
:10267000E80EF11CCC24C394D12CCC0EDD1EF70146
:102680003496C158DF4FF983E883CF57D040C70154
:102690000396CF57DF4F99838883C158D0400E945B
:1026A0000D0E811103C084E590E03AC000E020E007
:1026B00030E040E050E066E97FE086EC9EE00E947A
:1026C000170D4C01009789F40FEF20E030E040E057
:1026D00050E066E97FE086EC9EE00E94170D4C0119
:1026E000009719F482E790E01BC0C4010E947903AF
:1026F0005C01009719F48CE890E012C0AE014E5CCA
:102700005F4F6DE670E00E94920ABE016E5C7F4FE3
:10271000C5010E94D3088C01009729F487EA90E054
:102720000E940513BCCFC5010E94520C8EE30E948B
:10273000101280E20E941012F70188E111928A952E
:10274000E9F7512C2DC00E941313982F883011F0F7
:102750008F3789F4552021F15A94F701E50DF11DC9
:10276000108288E00E94101280E20E94101288E01D
:102770000E94101215C0CD57DF4F9883C358D04028
:102780000E941012CD57DF4F9881C358D040F701F7
:10279000E60DF71D9A3011F4108208C0908353940F
:1027A000652C712C97E1691671046CF2552009F4BF
:1027B000BDCF66EC70E0C7010E940016892B09F4BA
:1027C00010C143E050E06BEC70E0C7010E940916B5
:1027D000892B99F5F7018381882309F4A7CF16C0C7
:1027E000CF57DF4F68817981C158D040C6010E9420
:1027F0002216009759F4C8010E941109B601C501BB
:102800000E94D3083C01009741F40CC0B601C801F6
:102810000E9422098111E4CF05C0C8010E940B0962
:10282000830184CF8FEC90E00E940513CF57DF4FD8
:1028300088819981C158D04075C065EE70E0C701AC
:102840000E940016892B31F12CC0F6010190002066
:10285000E9F73197EC19FD0984E2782E7E1AC6015A
:102860000E94F91289A184FF02C08FE201C080E2B8
:102870000E94101204C080E20E9410127A9471101B
:10288000FACF6EA17FA188A599A50E9493128AE034
:102890000E941012B601C8010E9422098111D5CFF1
:1028A00045CF44E050E068EE70E0C7010E94091691
:1028B000892B09F07FC0F7018481882309F436CF82
:1028C00017C0C158DF4F68817981CF57D040C6010A
:1028D0000E942216009761F4C8010E941109B601F6
:1028E000C5010E941D06ED969FAF8EAFED970AC001
:1028F000B601C8010E9422098111E3CFED961FAEF7
:102900001EAEED97ED968EAD9FADED97892BD9F567
:102910008DEE90E00E940513C158DF4F88819981A8
:10292000CF57D0400E94F9128AE00E941012FECECA
:10293000C201B1010E943D128AE30E941012EF967B
:10294000DFAECEAEEF976C0C7D1C80E20E941012C1
:10295000EF96EEADFFADEF978191EF96FFAFEEAF43
:10296000EF970E941C12EF968EAD9FADEF978615E4
:10297000970559F78AE00E94101298E0290E311C41
:10298000411C511C03C0212C312C210148E050E096
:10299000B601ED968EAD9FADED970E9463063C01AA
:1029A000181619062CF2ED968EAD9FADED970E948C
:1029B0005D06BCCE6CEF70E0C7010E940016892B4B
:1029C00051F4C5010E94520C8111B0CE81E091E01A
:1029D0000E940513ABCE8AE191E00E940513C70166
:1029E000A1CFC8010E940B09C5010E941706C401AE
:1029F0000E94B50D54CE0E94F415A59F900DB49F72
:102A0000900DA49F800D911D11240895DB018F93DB
:102A10009F930E94FB14BF91AF91A29F800D911DC7
:102A2000A39F900DB29F900D11240895AA1BBB1B6C
:102A300051E107C0AA1FBB1FA617B70710F0A61BBE
:102A4000B70B881F991F5A95A9F780959095BC01DF
:102A5000CD010895A1E21A2EAA1BBB1BFD010DC0DA
:102A6000AA1FBB1FEE1FFF1FA217B307E407F5073E
:102A700020F0A21BB30BE40BF50B661F771F881F1A
:102A8000991F1A9469F760957095809590959B01B0
:102A9000AC01BD01CF010895DF93CF931F930F9336
:102AA0009A9DF02D219FF00D8B9DF00D8A9DE02DBC
:102AB000F10D039FF00D029FE00DF11D4E9DE00D05
:102AC000F11D5E9DF00D4F9DF00D7F936F93BF92B2
:102AD000AF925F934F93D5010E94F4158B01AC0127
:102AE000D7010E94F415EB01E80FF91FD60122D09F
:102AF0002F913F91D6010E94F415C60FD71FE81FF2
:102B0000F91FAF91BF9116D02F913F910E94F415FC
:102B1000C60FD71FE81FF91FD6010E94F415E60F54
:102B2000F71F9801BE01CF0111240F911F91CF9182
:102B3000DF9108950E94F415460F571FC81FD91F33
:102B400008F4319608950F930F7351F0220F331F3D
:102B5000441F551F661F771F881F991F0A95B1F7DD
:102B60000F9108950F930F7351F096958795779570
:102B7000679557954795379527950A95B1F70F9122
:102B800008952A0D3B1D4C1D5D1D6E1D7F1D801F70
:102B9000911F08950024A7FD00942A0F301D401DA9
:102BA000501D601D701D801D901D08952A193B0940
:102BB0004C095D096E097F09800B910B08952A1558
:102BC0003B054C055D056E057F058007910708955F
:102BD0000024A7FD00942A17300540055005600524
:102BE0007005800590050895A29FB001B39FC001B4
:102BF000A39F01D0B29F700D811D1124911D0895D6
:102C0000FB01DC018D91059080190110D9F3990B1E
:102C10000895FB01DC014150504030F08D9105904A
:102C2000801919F40020B9F7881B990B0895FC014D
:102C30008191861721F08823D9F799270895319734
:102C4000CF010895FB01DC018D91019080190110E5
:102C5000D9F3990B0895FB01DC014150504030F04D
:102C60008D910190801919F40020B9F7881B990BF8
:062C70000895F894FFCF67
:102C760001030507090E10121416181C1E2F00005A
:00000001FF
